:020000000528D1
:08000800052885008B01093079
:100010006600C23062000611031EE22864005830F8
:10002000B6209F20120803110310493A031D05282A
:100030009F20120803110310523A031D05284F3068
:10004000B6204B30B6209120640086192428810107
:10005000861D2D28010895006F286400811F28281F
:10006000011F28286400861D332881016400861939
:100070003D280108810195001C29811F3728640053
:10008000861940288101861D4328010881019500B9
:100090000310150C950764009B019A0199019801C2
:1000A00097019601303094005928861D552881010A
:1000B0006400031001081502031D59280310861D52
:1000C000652881018619622803146400960D970D36
:1000D000980D990D9A0D9B0D940B5528D42864000A
:1000E000951BF128151BF1288101640086197628DB
:1000F00081016400861D7A28010881019500950C14
:100100006400861981280108810195076400861D15
:1001100087284B2886198A28010881019500950CAB
:100120004B28C73062006400861D9128810164005D
:10013000861D9128811F9728C23062000034083044
:100140008F0092016400061CA2282E309300930BAE
:10015000A7280310920C061C92171F309300930BD4
:10016000AF2800008F0BA928120808006400910036
:1001700008308F0006151F309300930BBD28031025
:10018000910C03180611031C061500008F0BBB28E9
:100190001F309300930BCA2806119300930BCE28AF
:1001A0009300930BD128080064001B08B6201A089E
:1001B000B6201908B6201808B6201708B620160869
:1001C000B6202328640003102630140203182328C5
:1001D000960D970D980D990D9A0D9B0D940BE8288F
:1001E000D42864000310150C950750309C009B0127
:1001F0009A0199019801970196013130940086196E
:10020000FF2864008101031001081502031D032962
:10021000861D0E2986190A2903101129861D0E290B
:10022000031481016400960D970D980D990D9A0D98
:100230009B0D940B0329D42864000310950C15071B
:10024000950C950753309C009B019A0199019801E8
:100250009701960130309400312986192D298101AA
:100260006400031001081502031D312903108619CB
:100270003D298101861D3A2903146400960D970DCE
:0E028000980D990D9A0D9B0D940B2D29D428E5
:02400E00F53F7C
:00000001FF
