:020000040000FA:020000000528D1:06000A00772035281930B3:10001000A200A20B0928A3180E280F282010A4184C:1000200012281328A010200885001930A200A20B66:10003000172823191C281D282010241920282128BE:10004000A010200885001930A200A20B2528A319B2:100050002A282B282010A4192E282F28A010200889:1000600085001530A200A20B33280608F038A10045:100070002108013E031D3E2886013528A301A40165:10008000A1194728241023102011A0114B28241453:1000900023142015A01521195528A118522821181C:1000A0006A286728211870286D28A11C8A28211821:1000B0006528A119602820152315A011241672287F:1000C00020112316A0152415722886013528A314A3:1000D000A4147228231524157228A315A4157228B8:1000E000231624162014A014200885000728831244:1000F00085018601810183167F30860000308500EE:100100008030810000308B008312A0018501A301A3:0A011000A4010800860186173528B7:02400E00F23F7F:00000001FF