:10000000830100308A0024288C00030883018F00BC
:100010000B1D0B280C281E280B118D0A0D08263AE3
:10002000031D132814281E288D01003006180130E6
:100030008E000E1C06140E180610810183120F0884
:1000400083008C0E0C0E09000D3084000F302D2023
:100050008301F02B04068001840A0406031D2A286C
:0200600000346A
:1007E0008D01FE30831686008312061007308316B3
:1007F000810020308B00831281018B17FE2B24286F
:00000001FF
